:020000040800F2
:1000000040060020D10000084D3200086D2C000889
:1000100000000000000000000000000000000000E0
:100020000000000000000000000000009D320008F9
:1000300000000000000000005132000819340008E0
:10004000E3000008E3000008E3000008E300000804
:10005000E3000008E300000841080008E30000088E
:10006000E3000008E3000008E3000008E3000008E4
:10007000E3000008E3000008E3000008E3000008D4
:10008000E3000008E3000008E3000008E3000008C4
:10009000E3000008E3000008E3000008E3000008B4
:1000A000E3000008E3000008E3000008894B0008B3
:1000B000E3000008E3000008E30000080348854669
:1000C00000F098FA00480047994D000840060020CB
:1000D0000448804704480047FEE7FEE7FEE7FEE7E6
:1000E000FEE7FEE7A3340008BD000008F0B51FB42A
:1000F0000646002082B005464024019100901BE096
:10010000019922460F46304600F09CF8049A059B60
:10011000801A994110D310461946224600F082F801
:10012000361A8F410197224601200021009F00F0DE
:1001300079F838184D4100902046641E0028DFDC15
:10014000019B00982946324607B0F0BD03460B4399
:100150009B0703D009E008C9121F08C0042AFAD27D
:1001600003E00B780370401C491C521EF9D2704703
:10017000D2B201E00270401C491EFBD2704700223F
:10018000F6E710B513460A4604461946FFF7F0FF96
:10019000204610BD70B50446002903D0002020225F
:1001A000012310E0002801D00020C043C046C04613
:1001B0000DE02546D5408D4205D30D469540641B84
:1001C0001D46954040191546521E002DF1DC214672
:1001D00070BD000070B5002504462E46002911D0E0
:1001E000002C01DA01254442002901DA01264942A6
:1001F0002046FFF7CFFFB54200D04042002D00D08F
:10020000494270BD002C02DA0121C90702E0002C2E
:1002100000DD03490846C046C046214670BD0000C7
:10022000FFFFFF7F10B5202A04DB0146203A9140F2
:10023000002010BD914020239C1A0346E34019433F
:10024000904010BD10B5202A04DB0846203AD0406B
:10025000002110BD0B46D340D0402024A21A91406B
:100260000843194610BD0000F0B50746084658403F
:1002700087B0C00F049048000E4659004008490856
:10028000BC1A884105D2384631461E4617460B46F1
:1002900002465800400810434CD0300D03904005F2
:1002A0005900400D490D0590401A0290402872DA1D
:1002B00018030121000B09050843019004980092DE
:1002C000002805D0019952420020884100920190F7
:1002D000029840210A1A01990098FFF7A3FF0546EA
:1002E0000C466B4607CB00F097F9C0197141039A91
:1002F0000E0D0023D71756401A467A40164344D0B5
:10030000049A002A2DD0029A012A039A15DC1205BC
:10031000C01A914101263605001C7141D20F059E7D
:10032000D2070093019202962A46234600F094F9E0
:1003300007B0F0BD38463146FAE71605224A0F46A7
:10034000B218C01AB74101210905001C4F4100181D
:100350007F41114618187941E20F10436D1964412D
:1003600013E0E2076D0815436408C2071443039ABB
:1003700001261205C01A91413605001C7141CE07B5
:10038000400830434908C01851412A46234600F02E
:1003900056F9CDE7FFE7049801224000C117121A71
:1003A00000238B4104983146C417381AA141EEE767
:1003B00030B40124E407634030BC55E730B4012475
:1003C000E407614030BC4FE70000E0FFF0B51FB428
:1003D00088B00B990998002448400999C00F49003A
:1003E00049080991C0070B990090490049080B91F1
:1003F00009990898A64608431CD00B990A98084307
:1004000018D0099801244000420D4800410D099878
:1004100024050003000B204309900B980003000BF8
:1004200020430B9050181C4940180022019014469C
:10043000104605E0002001460DB0F0BD032801DAAA
:10044000034600E003239C46C11A0AAE0AE05F009F
:1004500008ADED5B4F00F75B7D430027AA187C4198
:10046000491C5B1E6145F2DD410004AB5A52210478
:10047000120C0A43240C401C0828DFDB0198029070
:100480000099704601910090059B049A079906987F
:1004900000F0E2F8D0E700000DFCFFFFF0B50C46DD
:1004A0005C4085B0E40FE40703944C000026640828
:1004B00059009446490802460296224321D06246DA
:1004C0000A431ED06200570D4A000E032303550D48
:1004D000012402462C492405781B1B0B360B4018BF
:1004E00023432643614600901C46501AB44103D36F
:1004F0000098401C009002E0921800985B41002890
:1005000003DA0020014605B0F0BD002001210905F5
:100510000746864611E064461D46141BB54106D3C6
:100520006546521BB341744607430C43A646CD07AC
:1005300040084908284392185B4105460D43EAD11B
:100540001046184313D06046194650407140084386
:1005500006D06046101AB34106D20122002306E0FD
:1005600000220123DB0702E00122D243531000984E
:1005700074460105381C6141029C039D00196941C4
:1005800000F05DF8BFE70000FD0300004A0009032A
:100590000123090B1B0519430A4B10B5520D9A4252
:1005A00002DA0020014610BD064B34339A4203DCC8
:1005B0009A1AFFF747FE10BD034BD218FFF732FE21
:1005C00010BD0000FF030000CDFBFFFF10B50029A8
:1005D00004DB0124E40740428C412146002B04DB6C
:1005E0001C460123DB075242A341994200D19042AD
:1005F00010BD0000064C0125064E05E0E36807CC5F
:100600002B430C3C98471034B442F7D3FFF75AFD04
:10061000CC5A0008EC5A000810B5202A06DBCB178C
:100620000846203A1041C1170B4306E00B46134120
:10063000D0402024A21A91400843194610BD10B59D
:10064000002B08DA0024401C614192185B411A43D8
:1006500001D14008400010BDF0B51FB482B005467E
:100660000C0003D0084604F0D3FC02E004F0D0FCF8
:1006700020300246009021462846FFF7D3FD049B18
:10068000059A04460F4618431143084314D01846F0
:1006900010431BD0009840210A1A18460599FFF70D
:1006A000D1FD05460E46009A05990498FFF7BAFD5C
:1006B000084305D0012004E02046394607B0F0BDCC
:1006C0000020C11705430E432C43374300990E9871
:1006D0006305401A7905E40A00220C43FD0A0A303A
:1006E00002D500200146E9E70105101969410C9C7B
:1006F0000D9D00196941FFF7A2FFDFE780B584B0C7
:1007000002AA107001918B480068002808D1FFE709
:1007100002A80078019904F077FA03A908702AE08A
:1007200093480068072822D3FFE70299019A1448EA
:100730000368D21811710168491C016000687D4985
:10074000096888420BD3FFE789490868401C0860A4
:100750000B490020086003A9052008700BE08449BC
:100760000868401C086003A90420087003E003A97E
:10077000FF200870FFE703A8007804B080BDC046E2
:100780001000002080B584B003A9088000200290EA
:10079000FFE7029903A8028800209142019006D247
:1007A000FFE726480078414248410190FFE7019861
:1007B000C007002809D0FFE77D20C00000F008F83E
:1007C000FFE70298401C0290E3E704B080BDC046FA
:1007D00085B0049000200390FFE70399049A00205D
:1007E0009142019006D2FFE7144800784142484107
:1007F0000190FFE70198C00700281DD0FFE70B20FC
:100800000290FFE7029900200029009006D0FFE740
:100810000A480078414248410090FFE70098C0072D
:10082000002804D0FFE70298401E0290EAE7FFE7A5
:100830000398401C0390D0E705B070471D000020CE
:1008400080B582B00420019000F070F9082000F01B
:100850006DF901990D4800F00BFB002804D0FFE76B
:100860000B49012008700BE00848082100F000FB4C
:10087000002804D0FFE7064902200870FFE7FFE7E1
:1008800004490020086002B080BDC0460008005046
:100890001C0000201002002081B0EFF3108072B61F
:1008A0000090FFE7FEE7000083B001AA10700091FE
:1008B0002F48006803282FD3FFE70199009A1C48AE
:1008C0000368D154006800280CD1FFE71849086874
:1008D000401C086026490868401C086002A90120E5
:1008E000087021E012480068012813D1FFE7104981
:1008F0000020086000990878000249784018801E9E
:100900000C4908601A490868401C086002A90220C6
:10091000087009E0FFE7FFE715490868401C086018
:1009200002A901200870FFE702A8007803B0704711
:10093000140000209401002083B001AA10700091DF
:100940000B48006806280BD3FFE701980099C87090
:1009500007490868401C086002A90420087003E0E9
:1009600002A9FF200870FFE702A8007803B07047D3
:100970002000002084B00390029101A9002008709B
:1009800002200090FFE700980299491E88420CDA85
:10099000FFE703980099415C0198484001A908705D
:1009A000FFE70098401C0090EDE701A8007804B034
:1009B000704782B000900098002804D1FFE701A999
:1009C000012008704FE000982521405C02280DD0DE
:1009D000FFE700990420C863FFE700992422002064
:1009E0008854FFE701A9012008703CE000980168E5
:1009F00008680E22904308600098826C11680120FC
:100A000003029943116000990A68116881431160DB
:100A100000994A6C1C231A409040096C4860009968
:100A2000086DC96C48600098406D00280CD0FFE745
:100A30000098416D086801221202904308600099F5
:100A4000C86D896D4860FFE7009925220120885410
:100A5000FFE70099242200208854FFE7FFE701A95F
:100A600000200870FFE701A8007802B0704780B549
:100A700082B0019069460020087001982521405CF1
:100A8000022807D0FFE701990420C86369460120C6
:100A9000087041E00198016808680E2290430860E0
:100AA00001980268116801208143116001998A6CE4
:100AB000116803029943116001994A6C1C231A4082
:100AC0009040096C48600199086DC96C48600198B4
:100AD000406D00280CD0FFE70198416D08680122A5
:100AE0001202904308600199C86D896D4860FFE764
:100AF0000199252201208854FFE701992422002032
:100B00008854FFE70198806B002804D0FFE7019824
:100B1000816B8847FFE7FFE76846007802B080BD39
:100B200081B06946088001B07047000080B582B08E
:100B300001A908800F4800680988084208D0FFE72B
:100B400001A801880B4A1160008800F017F8FFE740
:100B50000948006801A90988084208D0FFE701A8F0
:100B60000188054A11600088FFF7DAFFFFE702B04D
:100B700080BDC0460C1802401018024081B0694682
:100B8000088001B0704700008BB00A9009910020E6
:100B90000890FFE7099800680899C840002800D12C
:100BA00052E109980068089A012191400840079095
:100BB0000798002800D143E10998406803210840C4
:100BC000012807D0FFE70998406803210840022860
:100BD0002CD1FFE70A98806806900898400003210E
:100BE00081400698884306900998C168089840009B
:100BF000814006980843069006980A9988600A98EA
:100C00004068069008980121814006988843069024
:100C10000998406810210840010908988140069809
:100C20000843069006980A994860FFE709984068CB
:100C300003210840032816D0FFE70A98C0680690F1
:100C4000089840000321814006988843069009983F
:100C500081680898400081400698084306900698ED
:100C60000A99C860FFE709984068032108400228F4
:100C700020D1FFE70A980899C90889004018006A3E
:100C8000069008984007C00E0F21814006988843BF
:100C900006900998016908984007C00E814006989F
:100CA0000843069006980A99089AD2089200891873
:100CB0000862FFE70A980068069008984100032040
:100CC00002468A4006999143069109994968014074
:100CD00008984000814006980843069006980A99B3
:100CE0000860099880798007002800D1A7E008985B
:100CF0000321884355494058069008988007C00E44
:100D00000F2181400698884306900A98052109071B
:100D1000884203D1FFE7002005902DE00A984C4956
:100D2000884203D1FFE70120049022E00A98494954
:100D3000884203D1FFE70220039017E00A98464952
:100D4000884203D1FFE7032002900CE00A99434A4E
:100D50000420052300939142019001D00098019056
:100D600001980290FFE702980390FFE70398049030
:100D7000FFE704980590FFE7059908988007C00EE3
:100D800081400698084306900698089903229143EB
:100D90002E4A885032480068069007990698884382
:100DA000069009988079C006002805D5FFE70799C5
:100DB000069808430690FFE70698294908602948E5
:100DC00000680690079906988843069009988079EC
:100DD0008006002805D5FFE7079906980843069086
:100DE000FFE706981F4908601F48006806900799AA
:100DF000069888430690099880798007002805D5D1
:100E0000FFE70799069808430690FFE706981649FA
:100E1000086016480068069007990698884306906F
:100E200009988079C007002805D0FFE70799069840
:100E300008430690FFE706980C490860FFE7FFE7C4
:100E40000898401C0890A5E60BB070476018024057
:100E50000004005000080050000C0050001000502A
:100E60000018024004180240841802408018024012
:100E700084B0009101460098039102A9088003986C
:100E800000690988084204D0FFE701A90120087021
:100E900003E001A900200870FFE701A8007804B072
:100EA00070470000054800687047C0463148027826
:100EB00002490868801808607047C0463C0200205C
:100EC00080B582B001A9002008700B490868012292
:100ED000120210430860032000F010F8002804D02C
:100EE000FFE701A90120087002E000F047F8FFE7E2
:100EF00001A8007802B080BD0020024080B584B017
:100F0000039002A9002008701A480078002829D010
:100F1000FFE76C4800680190164801787D20C0000A
:100F2000FFF738F901460198FFF734F901F0BCF8F2
:100F3000002812D1FFE70398032809D8FFE7039997
:100F40000022D04300F049F803980B49086003E001
:100F500002A901200870FFE703E002A90120087040
:100F6000FFE703E002A901200870FFE702A800786C
:100F700004B080BD0A0000200C00002080B582B0C3
:100F8000FFE70E48026801210A430260006808403A
:100F900001900198FFE7FFE709480268012109076E
:100FA0000A4302600068084000900098FFE70320B1
:100FB000400201F06BF802B080BDC0464010024014
:100FC0003C10024080B582B0014601A801700021AA
:100FD000405603F077FE02B080BD80B584B0034672
:100FE00003A803700291019200214056029903F078
:100FF0007FFE04B080BD000080B584B00290374908
:101000000868032252029043029A10430860029833
:101010000121490288421ED1FFE72A4801680620C3
:1010200048432949FFF7B6F8401C0190FFE74648BE
:101030000068400500280DD5FFE70198002804D07E
:10104000FFE70198401E019003E003A90320087008
:1010500005E0ECE7FFE703A900200870FFE703A81D
:10106000007804B080BDC04680B582B015480168E4
:10107000062048431449FFF78DF8401C009017499B
:1010800008680122920390430860FFE72E48006839
:10109000800500280DD5FFE70098002804D0FFE761
:1010A0000098401E009003E001A90320087004E0AE
:1010B000ECE701A900200870FFE701A8007802B062
:1010C00080BDC0460400002040420F00034908686C
:1010D00001229203104308607047C0460070004030
:1010E00080B582B0019068460170019800280AD04E
:1010F000FFE7154800688005002803D4FFE7FFF7E5
:10110000E5FFFFE70DE0104800688005002807D5DF
:10111000FFE7FFF7A9FF002801D0FFE711E0FFE795
:10112000FFE70A490868042290430860684600788F
:10113000012802D1FFE730BF03E040BF20BF20BF3E
:10114000FFE702B080BDC0461470004010ED00E023
:1011500080B588B0079004A90020087003A9087022
:10116000079880788007002800D49DE002A900201D
:101170000870FB480068C000002810D4FFE7FFE7B4
:10118000F7480268012109070A4302600068084025
:1011900001900198FFE702A901200870FFE7F849D4
:1011A00008680122120210430860FFF77BFE0590D9
:1011B000FFE7F3480068C00500280CD4FFE7FFF7FD
:1011C00071FE0599401A032804D3FFE704A9032000
:1011D000087000E0EDE704A80078002853D1FFE78D
:1011E000E848006803210902084006900698002894
:1011F00017D0FFE706980799096C884211D0FFE7DE
:10120000E049086803221202904306900868012210
:10121000120410430860086890430860069808604C
:10122000FFE706A80078C007002818D0FFE7FFF7FF
:1012300039FE0590FFE7D3480068800700280DD4E9
:10124000FFE7FFF72FFE0599401ACF49884204D3E4
:10125000FFE704A90320087000E0ECE7FFE704A81B
:10126000007800280AD1FFE7C64908680322120265
:101270009043079A126C1043086003E0049803A996
:101280000870FFE703E0049803A90870FFE702A8CD
:101290000078012807D1FFE7B84908680122120742
:1012A00090430860FFE7FFE707980078C007002831
:1012B00009D0FFE7B549086803229043079A5268AE
:1012C00010430860FFE7079800788007002809D5D9
:1012D000FFE7AE4908680C229043079A92681043D2
:1012E0000860FFE7079800784007002809D5FFE766
:1012F000A649086830229043079AD26810430860D4
:10130000FFE707980078C00600280AD5FFE79F4945
:101310000868032292029043079A126910430860FA
:10132000FFE707984078C00600280AD5FFE79749ED
:101330000868032212029043079A5269104308601A
:10134000FFE707984078800700280AD5FFE78F4914
:101350000868032292049043079A926A1043086037
:10136000FFE707984078400700280AD5FFE787493C
:101370000868032212059043079AD26A1043086056
:10138000FFE707980078800600280AD5FFE77F4925
:101390000868032212039043079A92691043086079
:1013A000FFE707980078400600280AD5FFE777494D
:1013B0000868032292039043079AD2691043086099
:1013C000FFE7079840784006002818D5FFE76F49E7
:1013D0000868032292079043079A126B1043086033
:1013E0000798006B01218907884207D1FFE7684908
:1013F00008680122120410430860FFE7FFE707981E
:1014000080780007002809D5FFE760490868402276
:101410009043079A526B10430860FFE70798807863
:101420008006002816D5FFE7584A10680121890573
:101430008843079B9B6B184310600798806B88421A
:1014400007D1FFE7524908680122120610430860DD
:10145000FFE7FFE7079880784006002816D5FFE7EA
:101460004A4A1068012109068843079BDB6B184331
:1014700010600798C06B884207D1FFE744490868AD
:101480000122120610430860FFE7FFE70798407843
:101490000007002815D5FFE73E490868032290435E
:1014A000079A126A104308600798006A012807D15A
:1014B000FFE7374908680122120410430860FFE77C
:1014C000FFE7079840788006002815D5FFE73149E7
:1014D00008680C229043079A526A104308600798E4
:1014E000406A042807D1FFE729490868012212044D
:1014F00010430860FFE7FFE70798C078C00700289F
:1015000018D0FFE723490868032212039043079A83
:10151000526C104308600798406C012149038842CF
:1015200007D1FFE71A490868012212061043086034
:10153000FFE7FFE70798C078800700281AD5FFE784
:1015400014490868032212029043079A926C1043D0
:1015500008600798806C01210902884209D101E0E6
:101560003C100240F249086801221206104308604C
:10157000FFE7FFE703A8007808B080BD3C100240F9
:10158000007000405C1002408913000054100240BB
:101590000C1002405810024080B584B002900191B6
:1015A0000298002804D1FFE703A9012008700CE18C
:1015B00001988849096807221140884221D9FFE72C
:1015C0008449086807229043019A10430860FFF796
:1015D00069FC0090FFE77F480068072108400199F7
:1015E00088420DD0FFE7FFF75DFC0099401A7E4965
:1015F000884204D3FFE703A903200870E5E0EAE787
:10160000FFE7029800788007002817D5FFE70298C7
:1016100000784007002807D5FFE7C449086807227B
:10162000120310430860FFE7C04908680F22120246
:101630009043029A926810430860FFE7029800788E
:10164000C007002872D0FFE70298406801280BD13C
:10165000FFE7BA4800688003002804D4FFE703A925
:1016600001200870B1E03DE00298406802280BD1EB
:10167000FFE7B24800688001002804D4FFE703A90F
:1016800001200870A1E02CE00298406800280BD1EE
:10169000FFE7AA4800684005002804D4FFE703A933
:1016A0000120087091E01BE00298406803280BD1EC
:1016B000FFE74A4800688007002804D4FFE703A931
:1016C0000120087081E00AE0434800688007002894
:1016D00004D4FFE703A90120087076E0FFE7FFE7E5
:1016E000FFE7FFE79149086807229043029A526892
:1016F00010430860FFF7D6FB0090FFE78B480068B7
:101700003821084002994968C90088420DD0FFE796
:10171000FFF7C8FB0099401A3349884204D3FFE71A
:1017200003A90320087050E0E8E7FFE70198294982
:10173000096807221140884221D2FFE7254908683D
:1017400007229043019A10430860FFF7ABFB00901B
:10175000FFE72048006807210840019988420DD022
:10176000FFE7FFF79FFB0099401A1F49884204D307
:10177000FFE703A90320087027E0EAE7FFE70298E4
:101780000078400700280AD5FFE768490868072263
:1017900012039043029AD26810430860FFE700F0FA
:1017A0003FF8624909680F22120211408A090C4968
:1017B00089581F221140C8400E4908600948006836
:1017C000FFF79CFB03A90870FFE703A8007804B0AB
:1017D00080BDC046002002405C1002406010024004
:1017E000485900080C0000208913000001480068D7
:1017F0007047C0460400002080B582B0FFF7F6FFB6
:10180000019001F06FFA01460198090B8A00034923
:1018100089581F221140C84002B080BD8859000875
:1018200080B588B0414800688006400F00280FD17D
:10183000FFE7424800680721C9020840C10A0120A9
:101840008840039003993C48FEF7A4FC029069E0AD
:101850003648006838210840082803D1FFE735489A
:1018600002905EE0314800683821084010283CD1E1
:10187000FFE72F480168032211400691006870219C
:1018800008400009401C049006980190022812D0DC
:10189000FFE7019803280FD1FFE704992548FEF7D9
:1018A00079FC0146224800687F2212021040000A9B
:1018B000484307900EE0FFE704991F48FEF76AFCD3
:1018C00001461B4800687F2212021040000A48436C
:1018D0000790FFE716480068400F401C05900798E6
:1018E0000599FEF757FC02901AE01048006838216D
:1018F0000840202804D1FFE70120C00302900EE039
:101900000A48006838210840182804D1FFE77D20E4
:101910000002029002E000200290FFE7FFE7FFE7ED
:10192000FFE7FFE7029808B080BDC04608100240FC
:101930000C10024000127A000024F4000010024053
:1019400010B588B006900698002804D1FFE707A9D3
:10195000012008707DE306980078C007002800D1B8
:1019600088E0FC480068382108400490FA48006884
:101970000321084003900498102804D1FFE703983E
:10198000032804D0FFE70498082810D1FFE7F8489F
:1019900000688003002809D5FFE706984068002802
:1019A00004D1FFE707A90120087052E361E0FFE7D7
:1019B0000698406801210904884207D1FFE7EC49F5
:1019C000086801221204104308601DE00698406870
:1019D0000521090488420BD1FFE7E5490868012287
:1019E00093041843086008681204104308600AE072
:1019F000DF490868012213049843086008689204CC
:101A000090430860FFE7FFE7FFE70698406800287B
:101A100017D0FFE7FFF746FA0590FFE7D4480068C4
:101A2000800300280CD4FFE7FFF73CFA0599401A21
:101A3000652804D3FFE707A90320087009E3EDE751
:101A400016E0FFF72FFA0590FFE7C948006880030A
:101A500000280CD5FFE7FFF725FA0599401A6528FD
:101A600004D3FFE707A903200870F2E2EDE7FFE7E0
:101A7000FFE7FFE7069800788007002800D4A3E07E
:101A8000B4480068382108400490B3480068032136
:101A9000084003900498102804D1FFE70398022817
:101AA00004D0FFE7049800283BD1FFE7B048006866
:101AB0004005002809D5FFE70698C068002804D132
:101AC000FFE707A901200870C3E2AA4908687F223E
:101AD00012029043069A5269120210430860049859
:101AE000002811D1FFE7A24802680721C9028A43F2
:101AF000069B1B691A43026000680840C10A9E48A1
:101B0000C8409E490860FFE79D480068FFF7F6F966
:101B1000002804D0FFE707A90120087099E2FFE739
:101B200051E00698C06800282FD0FFE79049086868
:101B30000722D2029043069A12691043086008688F
:101B40000122120210430860FFF7ACF90590FFE78D
:101B500087480068400500280CD4FFE7FFF7A2F98A
:101B60000599401A032804D3FFE707A9032008704A
:101B70006FE2EDE77F4908687F2212029043069AE0
:101B800052691202104308601CE07949086801227A
:101B9000120290430860FFF785F90590FFE774484B
:101BA0000068400500280CD5FFE7FFF77BF9059991
:101BB000401A032804D3FFE707A90320087048E26E
:101BC000EDE7FFE7FFE7FFE706980078000700284A
:101BD00056D5FFE75F48006838210840182810D123
:101BE000FFE7684800688007002809D5FFE70698E6
:101BF0008069002804D1FFE707A90120087028E2C6
:101C00003DE00698806900281CD0FFE75D49086820
:101C1000012210430860FFF745F90590FFE7594896
:101C20000068800700280CD4FFE7FFF73BF905990F
:101C3000401A032804D3FFE707A90320087008E22D
:101C4000EDE71BE04F490868012290430860FFF769
:101C500029F90590FFE74B480068800700280CD55C
:101C6000FFE7FFF71FF90599401A032804D3FFE7A0
:101C700007A903200870ECE1EDE7FFE7FFE7FFE7C6
:101C8000069800784007002800D4CCE002A9002084
:101C90000870F248006838210840202810D1FFE77A
:101CA000F34800688007002809D5FFE70698806898
:101CB000002804D1FFE707A901200870C9E1B1E0BD
:101CC000E9480068C000002810D4FFE7FFE7E648B5
:101CD0000268012109070A43026000680840019078
:101CE0000198FFE702A901200870FFE7DF480068BC
:101CF000C00500281DD4FFE7DC4908680122120254
:101D000010430860FFF7CEF80590FFE7D74800685A
:101D1000C00500280CD4FFE7FFF7C4F80599401A66
:101D2000032804D3FFE707A90320087091E1EDE73A
:101D3000FFE7FFE706988068012806D1FFE7CC4956
:101D4000086801221043086029E006988068052889
:101D50001AD103E0081002400C100240C449086880
:101D6000042210430860086801221043086015E04F
:101D700000100240041002400024F400040000207F
:101D80000C00002060100240B9490868012290430D
:101D900008600868042290430860FFE7FFE7FFE758
:101DA00006988068002818D0FFE7FFF77BF80590B9
:101DB000FFE7AF480068800700280DD4FFE7FFF772
:101DC00071F80599401AAB49884204D3FFE707A987
:101DD000032008703DE1ECE717E0FFF763F805909A
:101DE000FFE7A3480068800700280DD5FFE7FFF74D
:101DF00059F80599401A9F49884204D3FFE707A97B
:101E00000320087025E1ECE7FFE702A8007801282D
:101E100007D1FFE794490868012212079043086040
:101E2000FFE7FFE7FFE7069800788006002840D527
:101E3000FFE70698C06900281DD0FFE789490868B8
:101E40000122920510430860FFF72CF80590FFE788
:101E500084480068000200280CD4FFE7FFF722F84E
:101E60000599401A032804D3FFE707A90320087047
:101E7000EFE0EDE71CE07B49086801229205904302
:101E80000860FFF70FF80590FFE77648006800024A
:101E900000280CD5FFE7FFF705F80599401A03283D
:101EA00004D3FFE707A903200870D2E0EDE7FFE7BE
:101EB000FFE70698006A002800D1C6E0674800687E
:101EC00038210840102878D0FFE70698006A0228D9
:101ED00050D1FFE763490868012212069043086069
:101EE000FEF7E0FF0590FFE75E48006880010028EC
:101EF0000CD5FFE7FEF7D6FF0599401A032804D357
:101F0000FFE707A903200870A3E0EDE7544908683C
:101F10005A4A1040069B5A6A9C6A2243DC6A240291
:101F200022431C6B22435C6B22439B6B1A4310437E
:101F300008604C4B1868012214062043186008689A
:101F4000120710430860FEF7ADFF0590FFE7454814
:101F50000068800100280CD4FFE7FEF7A3FF059975
:101F6000401A032804D3FFE707A90320087070E094
:101F7000EDE721E03B490868012212069043086022
:101F8000FEF790FF0590FFE73648006880010028C3
:101F90000CD5FFE7FEF786FF0599401A032804D306
:101FA000FFE707A90320087053E0EDE72C49086814
:101FB000314A10400860FFE746E00698006A0128B1
:101FC00004D1FFE707A90120087042E02448006817
:101FD00003900398032108400699496A88422DD14D
:101FE000FFE70398702108400699896A884225D145
:101FF000FFE703987F21090208400699C96A090290
:1020000088421BD1FFE703981F2149040840069925
:10201000096B884212D1FFE703980721490608405F
:102020000699496B884209D1FFE7039807214907C0
:1020300008400699896B884204D0FFE707A9012070
:10204000087006E0FFE7FFE7FFE707A90020087038
:10205000FFE707A8007808B010BDC046081002408E
:102060000C100240001002403C1002400070004082
:102070005C10024089130000FCFFFEEE8C80C11151
:1020800010490868022210430860704781B0009030
:1020900004490868032252029043009A10430860E2
:1020A00001B070470000014080B582B001900198F6
:1020B00001F08AF902B080BD02490868022290430B
:1020C0000860704710E000E083B00190FFE70198DE
:1020D0008421405C012804D1FFE702A90220087096
:1020E0002BE00199842201208854FFE7FFE7019942
:1020F0008822242088500198006800680090019888
:1021000003681868012188431860009849078843CC
:1021100000900199002048660098019909680860BC
:10212000019920208850FFE70199842200208854DB
:10213000FFE702A900200870FFE702A8007803B0BB
:10214000704782B001906846018002B0704781B04C
:10215000009001B0704780B586B004900391FFE70E
:1021600004988421405C012804D1FFE705A90220DE
:10217000087034E00499842201208854FFE7FFE7C7
:1021800004998822019224208850049800680068ED
:10219000029004980168086801229043086004983E
:1021A0000068806807214906884303990843049919
:1021B00009688860049801F075F9019A02980499F9
:1021C00009680860049920208850FFE70499842258
:1021D00000208854FFE705A900200870FFE705A844
:1021E000007806B080BD80B586B004900391FFE70B
:1021F00004988421405C012804D1FFE705A902204E
:10220000087034E00499842201208854FFE7FFE736
:10221000049988220192242088500498006800685C
:1022200002900498016808680122904308600498AD
:102230000068806807214907884303990843049987
:1022400009688860049801F02DF9019A02980499B0
:1022500009680860049920208850FFE704998422C7
:1022600000208854FFE705A900200870FFE705A8B3
:10227000007806B080BD81B0009001B0704781B099
:10228000009001B0704781B0009001B0704700002D
:1022900080B5A8B00F900F980068C0690E900F9895
:1022A000006800680D900F98006880680C900E9888
:1022B000F44908400B900B9800281DD1FFE70EA8A9
:1022C00000788006002816D5FFE70DA80078800664
:1022D000002806D4FFE70CA8C078C00600280AD55D
:1022E000FFE70F98406F002804D0FFE70F98416F79
:1022F0008847FFE78BE2FFE70B98002800D102E157
:102300000C98E149084205D1FFE70D98DF490842E2
:1023100000D1F8E00EA80078C007002810D0FFE731
:102320000DA84078C00700280AD0FFE70F98006882
:10233000012303620F999022885818438850FFE7C1
:102340000EA800788007002811D5FFE70CA80078B8
:10235000C00700280BD0FFE70F9801680220086231
:102360000F9990228858042318438850FFE70EA83D
:1023700000784007002811D5FFE70CA80078C007B7
:1023800000280BD0FFE70F980168042008620F991E
:1023900090228858022318438850FFE70EA800783F
:1023A0000007002815D5FFE70DA800788006002853
:1023B00005D4FFE70C98B44908420AD0FFE70F980C
:1023C0000068082303620F999022885818438850A8
:1023D000FFE70EA840780007002812D5FFE70DA8F8
:1023E000C078400700280CD5FFE70F98016801204E
:1023F000C00208620F999022885820231843885001
:10240000FFE70F989021405800287BD0FFE70EA8E7
:1024100000788006002816D5FFE70DA80078800612
:10242000002806D4FFE70CA8C078C00600280AD50B
:10243000FFE70F98406F002804D0FFE70F98416F27
:102440008847FFE7FFE70F98902140580A900F98C0
:102450000068806840210840402806D0FFE70AA8AD
:1024600000782821084244D0FFE70F9801F0DEF9F8
:102470000F98006880684006002835D5FFE7FFE721
:10248000EFF3108017901798099001202790279854
:1024900080F310880F980168886840229043886014
:1024A00009982690269880F31088FFE70F988021DE
:1024B0004058002813D0FFE70F9880214258D64893
:1024C00090630F984058FEF7D2FA002806D0FFE735
:1024D0000F9880214058816B8847FFE703E00F98F1
:1024E000FFF7D1FEFFE703E00F98FFF7CCFEFFE711
:1024F00007E00F98FFF7C7FE0F9990220020885041
:10250000FFE7FFE783E10F98C06E012800D01DE1CF
:102510000EA80078C006002800D417E10DA80078A6
:10252000C006002800D411E10F980168102008624D
:102530000F98006880684006002800D495E00F9846
:10254000802140580068416808A801800088002860
:1025500000D189E008A800880F995C22895A884236
:1025600000DB81E008980F995E2288520F98802145
:102570004058006800688006002868D4FFE7FFE73D
:10258000EFF3108016901698079001222592259857
:1025900080F310880F980168086812029043086061
:1025A00007982490249880F31088FFE7FFE7EFF363
:1025B000108015901598069001222392239880F39D
:1025C00010880F9801688868904388600698229068
:1025D000229880F31088FFE7FFE7EFF31080149054
:1025E0001498059001202190219880F310880F986D
:1025F0000168886840229043886005982090209860
:1026000080F31088FFE70F998C22202088500F99C3
:102610000020C866FFE7EFF3108013901398049032
:1026200001201F901F9880F310880F980168086898
:1026300010229043086004981E901E9880F3108822
:10264000FFE70F9880214058FEF7B3F9FFE70F9995
:10265000022008670F985C21415A5E22825A891A2B
:1026600089B2FFF76EFDFFE7D1E00F9A5C20105AA8
:102670005E21525A801A03AA10800F98405A0028EF
:1026800063D005E00F0800000100001020010004E5
:1026900003A80088002858D0FFE7FFE7EFF3108079
:1026A00012901298029001201D901D9880F31088BE
:1026B0000F98016808680922520190430860029847
:1026C0001C901C9880F31088FFE7FFE7EFF3108061
:1026D00011901198019001201B901B9880F3108895
:1026E0000F98016888684B4A1040886001981A90DA
:1026F0001A9880F31088FFE70F998C2220208850C9
:102700000F990020C8660F994867FFE7EFF3108024
:1027100010901098009001201990199880F310885B
:102720000F9801680868102290430860009818907C
:10273000189880F31088FFE70F99022008670F9818
:1027400003A90988FFF7FDFCFFE760E00EA8807889
:10275000C00600280FD5FFE70CA8807840060028A7
:1027600009D5FFE70F9801680120000508620F985E
:10277000FFF785FD4BE00EA800780006002816D56F
:10278000FFE70DA800780006002806D4FFE70CA894
:102790008078000600280AD5FFE70F98806F002890
:1027A00004D0FFE70F98816F8847FFE72FE00EA85E
:1027B0000078400600280AD5FFE70DA800784006FB
:1027C000002804D5FFE70F9801F08CF81FE00EA851
:1027D0008078000600280AD5FFE70DA8C0784006DB
:1027E000002804D5FFE70F98FFF745FD0FE00EA87E
:1027F000C078C00700280AD0FFE70DA8C0780006FF
:10280000002804D5FFE70F98FFF7A1FCFFE728B0E9
:1028100080BDC046FEFFFFEF0938000880B582B0DA
:1028200000900098002804D1FFE701A9012008705A
:102830004AE000988069002801D0FFE700E0FFE748
:10284000009888214058002808D1FFE70099842289
:1028500000208854009800F03BF8FFE70099882298
:10286000242088500098016808680122904308607D
:10287000009801F079FC012804D1FFE701A90120AB
:10288000087021E00098806A002804D0FFE70098D3
:1028900000F052FEFFE70098016848680922D20262
:1028A000904348600098016888682A2290438860B5
:1028B000009801680868012210430860009800F041
:1028C000E9FE01A90870FFE701A8007802B080BD09
:1028D00080B5A2B02190002020901F901E901D90E6
:1028E0001C9009A84C21FDF74AFC21980068434937
:1028F00088423CD1FFE70120099000200A9009A8F6
:10290000FEF726FC002803D0FFE7FDF7C5FFFFE731
:10291000FFE73E480268012189030A43026000681C
:10292000084008900898FFE7FFE73748026804214D
:102930000A4302600068084007900798FFE73020CC
:102940001C9002201D90002003901E901F900120DB
:1029500020902F481CA9FEF717F9039A1B2004901A
:102960001146FEF73AFB0498FEF72CFB43E0219852
:102970000068234988423DD1FFE7022009900020EA
:102980000B9009A8FEF7E4FB002803D0FFE7FDF752
:1029900083FFFFE7FFE71B480268012149040A4360
:1029A00002600068084006900698FFE7FFE71648B7
:1029B000026801210A4302600068084005900598FA
:1029C000FFE70C201C9002201D90002001901E901B
:1029D0001F9001202090052000071CA9FEF7D4F8C5
:1029E000019A1C2002901146FEF7F7FA0298FEF7B2
:1029F000E9FAFFE7FFE722B080BDC046003801409A
:102A0000004400403C10024034100240401002409C
:102A10000008005080B588B00390029101A80280A0
:102A200003988C21405820285CD1FFE702980028A9
:102A300005D0FFE701A80088002804D1FFE704A91A
:102A40000120087052E00398806801210903884240
:102A500010D1FFE70398006900280BD1FFE702A817
:102A60000078C007002804D0FFE704A901200870FF
:102A70003CE0FFE703990020C866039800681D4901
:102A8000884226D0FFE7039800681B49884220D07F
:102A9000FFE70398006840680002002818D5FFE7A8
:102AA000FFE7EFF310800590059800900122079250
:102AB000079880F31088039801680868920610430D
:102AC000086000980690069880F31088FFE7FFE7FB
:102AD000FFE70398029901AA128801F05DFE04A99C
:102AE000087003E004A902200870FFE704A800783A
:102AF00008B080BD008000400084004081B000909C
:102B000001B0704710B58AB00890079106A80280FE
:102B10000593089888214058202800D097E007980E
:102B2000002805D0FFE706A80088002804D1FFE7A9
:102B300009A9012008708EE0089880680121090326
:102B4000884210D1FFE70898006900280BD1FFE701
:102B500007A80078C007002804D0FFE709A90120D2
:102B6000087078E0FFE708999022002088500899C3
:102B7000882221208850FEF795F90290069808993E
:102B800054228852069808995622885208988068DC
:102B90000121090388420AD1FFE70898006900284B
:102BA00005D1FFE7002004900798039004E0079800
:102BB000049000200390FFE7FFE708985621405A51
:102BC00000282DD0FFE70898029B059900918021ED
:102BD000002201F00FFF002804D0FFE709A903201D
:102BE000087038E0049800280BD1FFE703980088AC
:102BF0001B4908400899096888620398801C039063
:102C000008E0049800780899096888620498401CD4
:102C10000490FFE708995622885A401E8852CCE754
:102C20000898029B059900914021002201F0E2FEE4
:102C3000002804D0FFE709A9032008700BE00899D9
:102C400088222020885009A90020087003E009A9E3
:102C500002200870FFE709A800780AB010BDC0463E
:102C6000FF01000081B0009001B07047FFE7FEE770
:102C700082B0014668460170007817490A68174912
:102C8000895C88421CD1FFE71348006801280BD1FA
:102C9000FFE711490020086011490868401C0860DE
:102CA00001A90120087013E00B490868401C086066
:102CB0000B490868401C086001A90020087007E063
:102CC0000549002008600649086001A90870FFE76F
:102CD00001A8007802B0704718000020080000200A
:102CE00020000020024800680721090308407047BF
:102CF0000810024080B586B0049021210A0202A883
:102D000082801D4A0292049A9170062100F0C0F957
:102D100069461420087001A900200870FFE701A887
:102D2000007869460978884210DAFFE7D7480078CA
:102D3000002801D0FFE709E03220FDF723FDFFE77F
:102D4000FFE70198401C01A90870E8E7CF4900207F
:102D5000087001A8007869460978884203DBFFE71C
:102D60000020059004E0049800F099FA0590FFE730
:102D7000059806B080BDC046EFAA210080B5A0B07E
:102D80001E901D911CA805900270624911A8049024
:102D90002922FDF7DBF9049A05981E9B13219970EF
:102DA0001D99096851710078042808D1FFE711A81E
:102DB000801D1D99091D2022FDF7C8F9FFE70FA806
:102DC0000221017154490F910DAA1F21117153491C
:102DD0000D911CA90978415C262211A80390815409
:102DE0000CAA01920A21117032210B910C99272211
:102DF000815429210291FDF7BDFD039A01460198F6
:102E00002823D15401787D20C00048430B99FDF759
:102E1000E1F90299024603980A9200F039F900207C
:102E200007900690FFE700200890FFE708980A99AE
:102E3000884210DAFFE795480078002801D0FFE7C4
:102E400009E00BA80088FDF79DFCFFE7FFE7089865
:102E5000401C0890EAE708980A99884207DBFFE7D8
:102E60002F4802F0C5F800200690079027E01E9832
:102E70001D991CAA13780DAAD25C00F021FA0990C2
:102E80000998401C002816D0FFE70998002804D1B3
:102E9000FFE700200690079011E01CA800780428A6
:102EA00005D1FFE7002006900120079007E00120F0
:102EB0000690079003E0754900200870B3E7734956
:102EC000002008700698002807D1FFE7079800281F
:102ED00003D1FFE700201F9019E00698012807D1D1
:102EE000FFE70798012803D1FFE701201F900EE0BC
:102EF0000698002807D1FFE70798012803D1FFE7CC
:102F000002201F9003E00020C0431F90FFE71F989E
:102F100020B080BD08590008011008040111191DD6
:102F2000A15A000880B58AB00890079132480690EF
:102F30003248059007991220887005A8082100F0F2
:102F4000A7F85020039000200290FFE7FFE70299C6
:102F5000039A00209142019006DAFFE728480078A2
:102F6000414248410190FFE70198C00700280FD077
:102F7000FFE746480078012801D1FFE708E032204A
:102F8000FDF700FCFFE7FFE70298401C0290DEE738
:102F90001B480078002803D0FFE70020099027E0B5
:102FA00002980399884206DBFFE738490020087041
:102FB000C04309901CE00898079900F0B4F9049008
:102FC0000498401C00280FD0FFE70498002805D182
:102FD000FFE72E4900200870099009E02B490020E6
:102FE00008700120099003E0284900200870ADE72F
:102FF00009980AB080BDC04602000313EFAA120070
:103000001D00002080B586B0049023210A0202A88A
:1030100082801D4A0292049A9170062100F038F8CD
:1030200069461420087001A900200870FFE701A874
:10303000007869460978884210DAFFE7134800787B
:10304000002801D0FFE709E03220FDF79BFBFFE7F6
:10305000FFE70198401C01A90870E8E70B49002030
:10306000087001A8007869460978884203DBFFE709
:103070000020059004E0049800F095F90590FFE722
:10308000059806B080BDC046EFAA230024000020AA
:1030900080B584B003900291039902A80288494840
:1030A00001907D23DB00FFF72DFD019802490122ED
:1030B000FFF7B0FC04B080BD6A00002080B58AB084
:1030C000002009900890079006900590FFE71B48A4
:1030D000026820210A4302600068084004900498B6
:1030E000FFE7FFE71548026804210A430260006811
:1030F000084003900398FFE7FFE7104802680121AA
:103100000A4302600068084002900298FFE70C2022
:10311000059021200004069001200790084805A989
:10312000FDF732FD0620019003210022FDF755FF37
:103130000198FDF747FF0AB080BDC0463410024039
:103140000008005080B582B01E4801901E49016001
:10315000E1214902416000218160C16001610C22CE
:1031600042618161C161016241622021816201216C
:1031700049030164FFF752FB002803D0FFE7FDF786
:103180008BFBFFE70F480021FFF72DF8002803D045
:10319000FFE7FDF781FBFFE70A480021FEF7DBFFB1
:1031A000002803D0FFE7FDF777FBFFE70548FEF7B0
:1031B0008BFF002803D0FFE7FDF76EFBFFE702B0AF
:1031C00080BDC0466C0000200038014080B582B050
:1031D0001C4800901C490160E12149024160002126
:1031E00001918160C16001610C2242618161C16114
:1031F000016241628162FFF711FB002803D0FFE703
:10320000FDF74AFBFFE70F480021FEF7ECFF00281F
:1032100003D0FFE7FDF740FBFFE70A480021FEF778
:103220009AFF002803D0FFE7FDF736FBFFE70548CC
:10323000FEF74AFF002803D0FFE7FDF72DFBFFE76D
:1032400002B080BD0001002000440040FFE7FEE71F
:103250007047000080B584B003AA107002910D4839
:103260000068642804D3FFE70A4900200860FFE7EC
:10327000039A084901910B680748C2540968405CE9
:10328000029900F05DFA01990868401C086004B0DA
:1032900080BDC04608020020A4010020704782B013
:1032A00000900098C078002803D1FFE7012001902A
:1032B00003E00020C0430190FFE7019802B070478F
:1032C00084B0029001916846027002984078052807
:1032D00022D1FFE70298C07800281AD1FFE70298B0
:1032E000807969460978884213D1FFE768460078FB
:1032F0001F280BD1FFE702980079019924228854F6
:1033000002984079019925228854FFE70120039013
:1033100006E00020039003E00020C0430390FFE795
:10332000039804B0704784B00290019101984078EE
:10333000262831D1FFE70198C078002829D1FFE77E
:1033400001980079029924228854019840790299C1
:1033500025228854694600200870FFE768460078F7
:103360001F280EDCFFE7019869460A78101880795B
:10337000029989180871FFE70098401C6946087097
:10338000ECE701982521405C029908600120039038
:1033900006E00020039003E00020C0430390FFE715
:1033A000039804B0704782B000900098C07800285D
:1033B00003D1FFE70120019003E00020C04301900A
:1033C000FFE7019802B0704780B584B00290029880
:1033D000401E000E002803D0FFE70120039011E0FB
:1033E0000298401E0949086000200190C043032153
:1033F00001F07EFC019806490860064A0721116029
:103400000390FFE7039804B080BDC04614E000E0DD
:1034100018E000E010E000E080B5FDF747FD80BD5A
:1034200010B596B007A802903C21FCF7A8FE00203A
:1034300000900690059004900390012001904002B6
:10344000FDF7DAFD009A01990298022307930C0216
:103450000A940B9240240C940F931093119208221B
:1034600012924A0413924A06149249071591FEF7E4
:1034700067FA002803D0FFE7FDF70EFAFFE7072001
:1034800003900221049100200590069003A8FEF706
:1034900083F8002803D0FFE7FDF7FEF9FFE716B039
:1034A00010BD704770B58AB009900998406E002829
:1034B00008D1FFE709996A220120885209996822F8
:1034C000885233E008A901910820087007A9087004
:1034D000099800688068072252061040400E06AA2C
:1034E00002921070099800688068420F05A8027067
:1034F000097802780E480490805C48430D49039196
:10350000895CFCF747FE019B029A039904460498E4
:10351000099D6A26AC531B781278805C5843895CFD
:10352000FCF738FE099968228852FFE70AB070BD9F
:10353000B0590008A859000881B0009000982821CF
:10354000405CC00700280CD0FFE700980068406886
:103550000121490488430099CA6A104309684860F8
:10356000FFE700982821405C800700280CD5FFE782
:1035700000980068406801210904884300990A6B9B
:10358000104309684860FFE700982821405C400725
:1035900000280CD5FFE700980068406801218904E5
:1035A000884300994A6B104309684860FFE7009818
:1035B0002821405C000700280CD5FFE70098006830
:1035C00040680121C903884300998A6B1043096848
:1035D0004860FFE700982821405CC00600280CD511
:1035E000FFE700980068806801210903884300997B
:1035F000CA6B104309688860FFE700982821405C87
:10360000800600280CD5FFE700980068806801213B
:103610004903884300990A6C104309688860FFE7F2
:1036200000982821405C400600281DD5FFE700983F
:1036300000684068012109058843009A536C1843CB
:10364000126850600098406C88420CD1FFE70098E7
:103650000068406803214905884300998A6C10433B
:1036600009684860FFE7FFE700982821405C0006F2
:1036700000280CD5FFE70098006840680121C904C4
:1036800088430099CA6C104309684860FFE701B09D
:103690007047000080B584B002900299902200200B
:1036A0008850FDF7FFFB0190029800680068000752
:1036B000002811D5FFE70298019B204900910121C4
:1036C0004905002201F096F9002804D0FFE703A97C
:1036D000032008702EE0FFE70298006800684007AA
:1036E000002811D5FFE70298019B144900910121A0
:1036F0008905002201F07EF9002804D0FFE703A924
:103700000320087016E0FFE70299882220208850E5
:1037100002998C22885002990020C8660299086795
:10372000FFE70299842200208854FFE703A90020C4
:103730000870FFE703A8007804B080BDFFFFFF0119
:1037400080B582B001AA107000912D480068002851
:1037500007D1FFE701A80078FFF78AFA2849086037
:103760004BE027480068012808D1FFE701A800784E
:103770000099FDF799F8224908603DE0204800686B
:10378000022808D1FFE701A80078009901F016FA95
:103790001B4908602FE01A480068032808D1FFE79A
:1037A00001A800780099FDF7C7F81549086021E0E5
:1037B00013480068042808D1FFE701A800780099A1
:1037C000FCF79CFF0E49086013E00D4800680528CF
:1037D00008D1FFE701A80078009901F015FA08491F
:1037E000086005E007490020086005490860FFE718
:1037F000FFE7FFE7FFE7FFE7FFE702B080BDC04656
:103800000C0200202000002080B582B001900198B9
:10381000806A009000995E2200208852009956220A
:1038200088520098FEF72FFD02B080BD8DB0039046
:10383000FFE7EFF3108006900698029001200C90AD
:103840000C9880F3108803980168086809225201D7
:103850009043086002980B900B9880F31088FFE764
:10386000FFE7EFF3108005900598019001200A9082
:103870000A9880F31088039801688868184A1040F5
:10388000886001980990099880F31088FFE70398F1
:10389000C06E012818D1FFE7FFE7EFF31080049016
:1038A0000498009001200890089880F310880398ED
:1038B00001680868102290430860009807900798F4
:1038C00080F31088FFE7FFE703998C2220208850BF
:1038D00003990020C866039948670DB07047C04639
:1038E000FEFFFFEF80B586B00290FFE7EFF3108098
:1038F00003900398019001200590059880F31088AB
:10390000029801680868402290430860019804907A
:10391000049880F31088FFE70299882220208850BD
:103920000299002088670298FFF79CF906B080BDD5
:1039300080B590B0069006986021405A04A908808E
:1039400006988C214058222800D08AE0069800680A
:10395000406A03A908800698806D05900398049931
:103960000840059908800699886D801C8865069A2C
:103970005E21505A401E50520698405A00286FD17E
:10398000FFE7FFE7EFF3108009900998029001200C
:103990000F900F9880F31088069801680868092234
:1039A00052019043086002980E900E9880F31088A0
:1039B000FFE7FFE7EFF310800890089801900122DD
:1039C0000D920D9880F310880698016888689043DE
:1039D000886001980C900C9880F31088FFE7069996
:1039E0008C22202088500699002048670699086795
:1039F0000698C06E01282ED1FFE706990020C86600
:103A0000FFE7EFF3108007900798009001200B90DC
:103A10000B9880F31088069801680868102290437C
:103A2000086000980A900A9880F31088FFE70698CB
:103A30000068C069102108400009012805D1FFE78E
:103A40000698016810200862FFE706985C21415A39
:103A5000FEF777FB03E00698FFF750F8FFE7FFE774
:103A600006E0069801688869082210438861FFE72C
:103A700010B080BD80B59EB00E900E986021405A67
:103A80000CA908800E980068C06908900E9800681C
:103A9000006807900E980068806806900E988C2148
:103AA0004058222800D045E10E986821405A0AA9C2
:103AB0000880FFE70AA8018800200029009007D0AD
:103AC000FFE708A800782021084040090090FFE7A0
:103AD0000098C007002800D1E8E00E980068406A0E
:103AE0000BA908800E98806D0D900B980C990840DA
:103AF0000D9908800E99886D801C88650E995E224C
:103B0000885A401E88520E980068C069089008A81C
:103B100000784007002853D0FFE708A80078C007C6
:103B2000002810D0FFE707A84078C00700280AD077
:103B3000FFE70E980068012303620E9990228858CF
:103B400018438850FFE708A800788007002811D59F
:103B5000FFE706A80078C00700280BD0FFE70E9803
:103B60000168022008620E999022885804231843A5
:103B70008850FFE708A800784007002811D5FFE724
:103B800006A80078C00700280BD0FFE70E98016850
:103B9000042008620E999022885802231843885006
:103BA000FFE70E9890214058002808D0FFE70E98B4
:103BB000FEF769FB0E99902200208850FFE7FFE78F
:103BC0000E985E21405A00286FD1FFE7FFE7EFF320
:103BD000108013901398059001221D921D9880F378
:103BE00010880E98016808681202904308600598D2
:103BF0001C901C9880F31088FFE7FFE7EFF310801C
:103C000012901298049001201B901B9880F310884A
:103C10000E98016888684D4A1040886004981A9090
:103C20001A9880F31088FFE70E998C222020885084
:103C30000E99002048670E9908670E98C06E0128FB
:103C40002ED1FFE70E990020C866FFE7EFF3108042
:103C500011901198039001201990199880F3108801
:103C60000E98016808681022904308600398189025
:103C7000189880F31088FFE70E980068C06910213B
:103C800008400009012805D1FFE70E9801681020BF
:103C90000862FFE70E985C21415AFEF752FA03E0F2
:103CA0000E98FEF72BFFFFE7FFE703E70E985E2174
:103CB000415A09A80180008800283AD0FFE709A8E6
:103CC00000880E996822895A884232DAFFE7FFE7B6
:103CD000EFF310801090109802900122179217981D
:103CE00080F310880E9801688868120790438860F6
:103CF00002981690169880F31088FFE70E991248E4
:103D00004867FFE7EFF310800F900F9801900120B4
:103D10001590159880F310880E9801680868202285
:103D20001043086001981490149880F31088FFE7FE
:103D3000FFE706E00E980168886908221043886151
:103D4000FFE71EB080BDC04631390008FEFFFFEF1F
:103D500080B590B0069006986021405A05A9088069
:103D600006988C214058222800D088E006980068E8
:103D7000406A04A908800498059908400699896D4D
:103D800008700699886D401C8865069A5E21505A15
:103D9000401E50520698405A00286FD1FFE7FFE7B7
:103DA000EFF3108009900998039001200F900F986D
:103DB00080F3108806980168086809225201904330
:103DC000086003980E900E9880F31088FFE7FFE7D5
:103DD000EFF3108008900898029001220D920D9840
:103DE00080F310880698016888689043886002987C
:103DF0000C900C9880F31088FFE706998C22202005
:103E00008850069900204867069908670698C06E92
:103E100001282ED1FFE706990020C866FFE7EFF3DF
:103E2000108007900798019001200B900B9880F369
:103E3000108806980168086810229043086001986D
:103E40000A900A9880F31088FFE706980068C06916
:103E5000102108400009012805D1FFE706980168F4
:103E600010200862FFE706985C21415AFEF769F9C5
:103E700003E00698FEF742FEFFE7FFE706E006983C
:103E800001688869082210438861FFE710B080BD8F
:103E900080B59EB00E900E986021405A0DA9088002
:103EA0000E980068C06909900E9800680068089034
:103EB0000E980068806807900E988C214058222840
:103EC00000D043E10E986821405A0BA90880FFE713
:103ED0000BA8018800200029019007D0FFE709A85E
:103EE00000782021084040090190FFE70198C007B1
:103EF000002800D1E6E00E980068406A0CA908800E
:103F00000C980D9908400E99896D08700E99886D6E
:103F1000401C88650E995E22885A401E88520E9871
:103F20000068C069099009A800784007002853D0AC
:103F3000FFE709A80078C007002810D0FFE708A80D
:103F40004078C00700280AD0FFE70E9800680123D8
:103F500003620E999022885818438850FFE709A8F9
:103F600000788007002811D5FFE707A80078C00770
:103F700000280BD0FFE70E980168022008620E9916
:103F800090228858042318438850FFE709A8007836
:103F90004007002811D5FFE707A80078C0070028D0
:103FA0000BD0FFE70E980168042008620E9990225A
:103FB0008858022318438850FFE70E9890214058F4
:103FC000002808D0FFE70E98FEF75DF90E999022C1
:103FD00000208850FFE7FFE70E985E21405A002836
:103FE0006FD1FFE7FFE7EFF310801390139806906F
:103FF00001221D921D9880F310880E9801680868B0
:1040000012029043086006981C901C9880F3108858
:10401000FFE7FFE7EFF31080129012980590012060
:104020001B901B9880F310880E98016888684D4A91
:104030001040886005981A901A9880F31088FFE75E
:104040000E998C22202088500E99002048670E99E6
:1040500008670E98C06E01282ED1FFE70E99002048
:10406000C866FFE7EFF310801190119804900120CB
:104070001990199880F310880E980168086810222A
:104080009043086004981890189880F31088FFE710
:104090000E980068C069102108400009012805D168
:1040A000FFE70E98016810200862FFE70E985C2178
:1040B000415AFEF746F803E00E98FEF71FFDFFE7B2
:1040C000FFE705E70E985E21415A0AA801800088A3
:1040D00000283AD0FFE70AA800880E996822895A7A
:1040E000884232DAFFE7FFE7EFF310801090109874
:1040F000039001221792179880F310880E98016898
:10410000886812079043886003981690169880F389
:104110001088FFE70E9912484867FFE7EFF3108019
:104120000F900F98029001201590159880F3108839
:104130000E980168086820221043086002981490C5
:10414000149880F31088FFE7FFE706E00E980168F7
:104150008869082210438861FFE71EB080BDC04611
:10416000513D0008FEFFFFEF10B594B013900EA96B
:104170000020087013980068DA49884206D0FFE7EB
:1041800013980068D849884201D1FFE700E0FFE7B3
:10419000139988680A6910434A691043C96908433A
:1041A0001290139800680068D0490840129908439B
:1041B000139909680860139800684068032109038F
:1041C00088431399CA681043096848601398806946
:1041D000129013980068C34988420CD0FFE71398E7
:1041E0000068C149884206D0FFE71398016A129817
:1041F00008431290FFE7139800688068F54908406B
:104200001299084313990968886013980068C06A76
:104210000F21884313994A6A10430968C862FFE76F
:1042200013980068F749884229D1FFE7F6480068EB
:10423000032108400B9003281CD80B98810001A093
:104240004058874655420008654200085D42000814
:104250006D42000810A9002008700FE010A902208C
:1042600008700BE010A90420087007E010A90820CE
:10427000087003E010A910200870FFE705E113980B
:104280000068E24988423CD1FFE7DF4800680C2122
:1042900008400A900C282FD80A98810001A04058A5
:1042A0008746C046D9420008F9420008F942000892
:1042B000F9420008E9420008F9420008F942000802
:1042C000F9420008E1420008F9420008F9420008FA
:1042D000F9420008F142000810A9002008700FE020
:1042E00010A9022008700BE010A90420087007E054
:1042F00010A90820087003E010A910200870FFE73B
:10430000C2E013980068F549884229D1FFE7BE480A
:10431000006830210840099000280CD0FFE7099878
:10432000102810D0FFE70998202808D0FFE7099847
:1043300030280CD00FE010A9002008700FE010A961
:10434000022008700BE010A90420087007E010A9F3
:104350000820087003E010A910200870FFE792E021
:1043600013980068DE49884204D1FFE710A90020B5
:10437000087087E013980068DA49884204D1FFE7A3
:1043800010A9002008707CE013980068D649884284
:1043900004D1FFE710A90020087071E013980068AD
:1043A000F849884230D1FFE7F848006803218902C4
:1043B00008400890002812D0FFE7089801218902E0
:1043C000884214D0FFE708980121C90288420AD028
:1043D000FFE708980321890288420CD00FE010A95A
:1043E000002008700FE010A9022008700BE010A94F
:1043F0000420087007E010A90820087003E010A945
:1044000010200870FFE73AE013980068DE49884200
:1044100030D1FFE7DD48006803210902084007901A
:10442000002812D0FFE7079801210902884214D022
:10443000FFE707980121490288420AD0FFE7079861
:104440000321090288420CD00FE010A90020087057
:104450000FE010A9022008700BE010A904200870DA
:1044600007E010A90820087003E010A910200870C8
:10447000FFE703E010A910200870FFE7FFE7FFE760
:10448000FFE7FFE7FFE7FFE7FFE7FFE713980068B5
:10449000BC49884206D0FFE713980068BA498842B1
:1044A00000D085E010A80078069008282BD8069840
:1044B000810001A040588746DD44000807450008F8
:1044C000F144000807450008F744000807450008C4
:1044D0000745000807450008FF440008FDF78CF970
:1044E0000C9016E00080004000840040F369FFCF8C
:1044F000A7480C900DE0FDF793F90C9009E001201E
:10450000C0030C9005E000200C900EA9012008705B
:10451000FFE70C9800284AD0FFE70C981399496AE6
:104520004A009C49895AFBF735FE0D900D98139966
:104530004A6803215143884207D3FFE70D98139936
:1045400049680903884204D9FFE70EA901200870D1
:104550002CE00C9813990491496A4A008D498A5AB3
:10456000002305931946FBF7C1FD049A059B040E31
:104570000902091900025268540800195941FBF751
:10458000B5FD0F900F98000A03280AD3FFE70F9894
:10459000000D002805D1FFE70F9813990968C8603E
:1045A00003E00EA901200870FFE7FFE7FFE7D8E06E
:1045B0001398C0690121C90388426FD1FFE710A891
:1045C0000078039008282ED80398810002A0405854
:1045D0008746C046FFF4FF11FD4500082746000846
:1045E000114600082746000817460008274600081D
:1045F00027460008274600081F460008FDF7FCF87C
:104600000C9016E000380140541002400044004075
:104610005F480C900DE0FDF703F90C9009E00120D4
:10462000C0030C9005E000200C900EA9012008703A
:10463000FFE70C98002830D0FFE70C9813990291FF
:10464000496A4A005349895AFBF7A4FD0299400080
:1046500049684A088018FBF79DFD0F900F981028B5
:1046600016D3FFE70FA84088002811D1FFE70F9964
:104670000F20814311A801800F990E2211404A0892
:10468000119911430180008813990968C86003E0FB
:104690000EA901200870FFE7FFE761E010A800788D
:1046A000019008282DD80198810001A04058874624
:1046B000D546000803470008ED46000803470008F8
:1046C000F3460008034700080347000803470008B3
:1046D000FB460008FDF790F80C9018E000480040F9
:1046E000004C004000500040003C014028480C9025
:1046F0000DE0FDF795F80C9009E00120C0030C9047
:1047000005E000200C900EA901200870FFE70C982E
:10471000002824D0FFE70C9813990091496A4A00B9
:104720001C49895AFBF736FD009949684A088018E8
:10473000FBF730FD0F900F9810280BD3FFE70FA861
:104740004088002806D1FFE70FA800881399096860
:10475000C86003E00EA901200870FFE7FFE7FFE74C
:10476000FFE713996A220120885213996822885220
:10477000139900204867139988670EA8007814B031
:1047800010BDC0460080004000840040541002402C
:104790000024F400B859000897B00790069105A8C6
:1047A0000280069807998865059807995C228852C7
:1047B000059807995E228852079900204867FFE70D
:1047C0000798806801210903884210D1FFE7079804
:1047D0000069002805D1FFE70799602280488852C8
:1047E00004E007996022FF208852FFE732E0079833
:1047F0008068002810D1FFE707980069002805D1DC
:10480000FFE707996022FF20885204E007996022A1
:104810007F208852FFE71CE0079880680121090784
:10482000884210D1FFE707980069002805D1FFE70B
:10483000079960227F20885204E0079960223F2078
:104840008852FFE704E00799602200208852FFE7C2
:10485000FFE7FFE7FFE707999022002088500799BC
:104860008C2222208850FFE7EFF310800C900C98E8
:10487000049001221692169880F310880798016818
:1048800088681043886004981590159880F3108804
:10489000FFE70798406E01214907884251D1FFE7A1
:1048A00005A8008807996822895A884249DBFFE7F2
:1048B0000798806801210903884209D1FFE707981A
:1048C0000069002804D1FFE707994948486703E0D9
:1048D000079946484867FFE707980069002818D0FD
:1048E000FFE7FFE7EFF310800B900B980390012296
:1048F0001492149880F310880798016808681202CF
:104900001043086003981390139880F31088FFE712
:10491000FFE7FFE7EFF310800A900A980290012268
:104920001292129880F3108807980168886812071D
:104930001043886002981190119880F31088FFE767
:104940004AE00798806801210903884209D1FFE7FE
:1049500007980069002804D1FFE7079922484867B3
:1049600003E007991F484867FFE707980069002898
:1049700019D0FFE7FFE7EFF3108009900998019045
:1049800001201090109880F310880798016808683B
:10499000092252011043086001980F900F9880F38C
:1049A0001088FFE717E0FFE7EFF310800890089802
:1049B000009001200E900E9880F3108807980168EF
:1049C000086820221043086000980D900D9880F32D
:1049D0001088FFE7FFE7FFE7002017B07047C046E9
:1049E000FF010000513D000831390008913E0008E8
:1049F000753A000810B596B0189C0890079106A863
:104A000002700593FFE708980068C069079908409D
:104A1000401A4142484106A90978884200D0AAE0DC
:104A20001898401C002800D1A4E0FCF73BFA059937
:104A3000401A1899884204D8FFE7189800283FD1F7
:104A4000FFE7FFE7EFF310800D900D980490012031
:104A50001590159880F310880898016808680D2251
:104A600052019043086004981490149880F31088C1
:104A7000FFE7FFE7EFF310800C900C980390012202
:104A80001392139880F310880898016888689043FF
:104A9000886003981290129880F31088FFE70899B5
:104AA00088222020885008998C228850FFE7089996
:104AB000842200208854FFE709A9032008705EE0E3
:104AC0000898006800684007002852D5FFE708985A
:104AD0000068C0690121C9020840C00A012847D105
:104AE000FFE7089801680120C0020862FFE7EFF3C2
:104AF00010800B900B98029001201190119880F378
:104B000010880898016808680D22520190430860D7
:104B100002981090109880F31088FFE7FFE7EFF3FA
:104B200010800A900A98019001220F920F9880F34A
:104B300010880898016888689043886001980E90F2
:104B40000E9880F31088FFE708998822202088506B
:104B500008998C228850089990228850FFE708997C
:104B6000842200208854FFE709A90320087006E08A
:104B7000FFE7FFE747E709A900200870FFE709A85A
:104B8000007816B010BD000080B582B008480090D3
:104B9000FDF77EFB0098074901910122FDF73AFFDE
:104BA000019800780449FEF755FB02B080BDC0466D
:104BB0006C0000206A0000202500002083B001AABC
:104BC000107000913D480068052815D3FFE701A843
:104BD000007800998978884208D1FFE7374908684A
:104BE000401C086002A90320087009E03349002036
:104BF000086002A9087003E002A9FF200870FFE71F
:104C000002A8007803B0704785B004AA1070039121
:104C100002AA0020107003990B7802995940117074
:104C200003994B7802995940117003998B78029936
:104C3000594011700399CB78029959401170019035
:104C4000FFE701981A49096888420DD2FFE70398E7
:104C50000199401801790298484002A90870FFE7BD
:104C60000198401C0190ECE702A8007804A909789B
:104C7000884218D1FFE700200090FFE700986328E2
:104C800009D8FFE7009A0E4900208854FFE70098F2
:104C9000401C0090F2E707490020C0430860064925
:104CA00001200870FFE705490020086005B0704743
:104CB0009401002008020020240000202000002091
:104CC000A401002081B001466846017000214056D1
:104CD000002809D4FFE7684601781F200140012021
:104CE000884002490860FFE701B0704700E100E03A
:104CF00070B582B0024601A80270009100214056B2
:104D0000002816D4FFE7002401A908570322D34343
:104D10001840174A805809578C07E50EFF24AC400D
:104D2000A043009CA401E4B2AC4020431940885049
:104D30001AE001A908780F24204008380322D34341
:104D400018400A4A8058002549578D07EE0EFF2566
:104D5000B540A843009DAD01EDB2B54028432140C8
:104D6000083919408850FFE702B070BD1CED00E023
:104D700000E400E080B584B003900291039801A99B
:104D80000870044801226423FDF7BCFE039804B0B8
:104D900080BDC04600010020F0B59DB000201C90F1
:104DA000FCF78EF8FEF73CFBFEF788F9FEF7CAF930
:104DB000FEF70CFA7D4801687D4809904522FBF713
:104DC000C5F90998FEF71EF9FFE77A4800780890C0
:104DD000012804D0FFE70898022876D083E07548C0
:104DE000002107910170754802C00690744801685F
:104DF0006F484522FBF7AAF9724913A804902022B4
:104E00000592FBF7A3F90499059A06986E4C0EAB30
:104E100060CC60C3E0CCE0C3FBF798F907980D9035
:104E2000FFE70D9804284FDCFFE70D9881000EA8DE
:104E30004158664800F0DCF80DA802785C485F49EC
:104E4000FDF79CFF0C900C98002804D1FFE7634805
:104E500000F0CEF838E00C9802282FD1FFE75C482C
:104E600000F0C6F800200B90FFE70B9900201F29E7
:104E7000039008D8FFE70B99504840180079411E6D
:104E800088410390FFE70398C00700280CD0FFE794
:104E90000B994A48401801794F4800F0A9F8FFE7FC
:104EA0000B98401C0B90E0E744492420085C243117
:104EB00049784118474800F09BF805E0FFE7FFE715
:104EC0000D98401C0D90ACE70DE03A4900200870A9
:104ED00039480168364802904522FBF737F90298B5
:104EE000FDF708FFFFE73E4900200860FFE7314873
:104EF0000078002856D1FFE730482D49FEF712F818
:104F00001B901B98401C002804D1FFE7374800F095
:104F10006FF834E01B9801282BD1FFE727482421A4
:104F2000415C243042782F4800F062F800200A905B
:104F3000FFE70A981F2815D8FFE70A991F4840186D
:104F40000079002801D1FFE70CE00A991B484018BE
:104F50000179214800F04CF8FFE7FFE70A98401C70
:104F60000A90E6E7204800F043F81D490020086059
:104F700004E01B490868401C0860FFE7FFE7184889
:104F8000006804280DD1FFE7FDF796F80020019096
:104F90000121FCF7A5F8FDF773F8019810490860A6
:104FA000FFE7A4E70248FEF72DF80EE7980100207E
:104FB000250000201C000020A00100201402002079
:104FC0009C010020D0590008345900080F5A0008ED
:104FD0001C5A0008045A0008855A0008F3590008B2
:104FE00010020020505A0008F05900083A5A0008F0
:104FF0000FB410B503A9044B044A029800F0E8F876
:1050000010BC08BC04B01847754D00080000002013
:105010002021020C01D010211046020A01D01046B6
:105020000839020901D01046091F820801D0104634
:10503000891E420801D0881E7047081A704702E096
:1050400008C8121F08C1002AFAD170477047002013
:1050500001E001C1121F002AFBD17047F0B51FB457
:1050600086B00998089A030D0021024314D05148D4
:10507000514A1818504305141198012810981AD055
:10508000281A401C00264D4F4D490096019104906E
:10509000002812DA444211E01198012449A30128A2
:1050A00001D11098C1430698119A84600360C260D0
:1050B00041600BB0F0BD4042E4E70446210500200A
:1050C0003F4A001C51410391029012E0E00707D0D3
:1050D00032463B4601990098FBF778F90191009020
:1050E00032463B4610461946FBF770F906460F4616
:1050F0006410002CEAD10498039B0028029A0999B5
:10510000089806DAFBF762F9019B009AFBF75EF953
:1051100005E0FBF7C3F9019B009AFBF7BFF90446D2
:105120000E460022284BFBF751FA03D80020C0435B
:10513000014607E00022254B20463146FBF794F854
:10514000FBF724FA102409E0002C0ADB0A220023D2
:10515000FAF7CCFF079B30321A55641E02460A4309
:10516000F2D11122641C079B121B1C19119B012BED
:1051700003D0012308430ED10AE0084304D01120D4
:1051800010900020119077E71098151A6D1E0BE013
:105190001098824202DD00236D1C03E0824201DA96
:1051A00000236D1E002BEED0069811998260C1601D
:1051B00030C07EE701FCFFFF104D000000001440EE
:1051C0000000F03F300000000000F0430000E03F2E
:1051D000FFB597B00646002518E2252877D10024B0
:1051E0002746FD49049400E00443761C32780120F0
:1051F000203A90400842F7D130782A280ED0022277
:10520000307801463039092916D804990A235943C0
:10521000303940181443761C0490F1E7189802C8FE
:1052200004911890002904DA012040030443484205
:10523000049002200443761C30782E2814D10420D8
:1052400004437078761C2A2809D11898761C80C8E7
:10525000189009E00A214F43303FC719761C307877
:10526000014630390929F5D930786C2810D006DC90
:105270004C281AD068280ED06A2817D104E0742868
:1052800013D07A2812D110E00120400504430CE02D
:105290000121090501E0032109050C4371788142D0
:1052A00003D1012000052418761C761C307811905B
:1052B00066280BD013DC58287DD009DC00287BD071
:1052C0004528F6D04628F4D047281AD1A5E118E0A1
:1052D000632835D0642870D0652812D19DE17028EC
:1052E0006CD008DC6728F1D069287BD06E280DD0FF
:1052F0006F2806D1BAE073282ED0752871D078288F
:1053000059D01A9A199990476D1C7EE16002400F9E
:10531000022809D003280DD00428189801680DD060
:105320000D60001D189070E11898EA1701680D6073
:105330004A60F6E7189801680D80F2E70D70F0E713
:1053400018986A4601781172001D1890002050725A
:1053500002A80090012005E0189802C818900020CB
:105360000091C04361070DD5002101E00199491C5E
:105370000191B94212DA8142F8DB009A515C0029AE
:10538000F4D10BE0002101E00199491C0191814217
:10539000FADB019A0099895C0029F5D101990498FA
:1053A0001A9B471A21463846199A00F097FA019934
:1053B000401945180BE04FE02CE113E04EE0009857
:1053C00000990078491C00911A9A19999047019800
:1053D000401E0190401CF2D1214638461A9B199A72
:1053E00010E137E00A200021009001916002410F96
:1053F000022907D0189A01CA1892C21794460329A5
:1054000008D00AE01898C01DC108C90005C9189144
:10541000944607E000B2C2179446042902D140B274
:10542000C1178C4600226146944506DA0A460021DF
:10543000404291418C462D2102E0210504D52B21CB
:105440006A461173012103E0E10701D02021F7E74B
:10545000029155E00A200AE0102008E01020009098
:105460000021042004430191082703E008200021C3
:10547000019100906002410F022907D0189A01CAD9
:10548000189200229446032908D008E01898C01DFD
:10549000C108C90005C91891944603E080B20429E7
:1054A00000D1C0B200210291210729D5119970299C
:1054B00006D0009A1021019B4A401A4305D00EE005
:1054C00040216A461173012108E06146014306D07C
:1054D00030216A4611731199517302210291009A89
:1054E0000821019B4A401A430AD16146014301D178
:1054F000610705D530216A46117301217F1E029193
:105500001199582904D035A10E910DA90D910DE0E6
:1055100037A1F9E76146019B009AFAF7E7FD0E9B78
:105520008C469B5C0D9A521E0D921370614601438E
:10553000F0D10D9805A9081A20300190600703D515
:1055400001200004844300E001270198874201DD27
:10555000381A00E0002001990090411802980918BB
:105560000498401A0490E00306D421461A9B199A25
:10557000049800F0B3F94519002706E003A81A9A29
:10558000C05D199990476D1C7F1C02988742F5DB1E
:10559000E0030CD521461A9B199A049800F09EF955
:1055A000451904E01A9A3020199990476D1C00990A
:1055B000481E00900029F5DC08E00D980D99007850
:1055C000491C0D911A9A199990476D1C0199481E12
:1055D00001900029F1DC63E1092801003031323308
:1055E000343536373839616263646566000000001F
:1055F0003031323334353637383941424344454609
:105600000000000000F05AF94519761C3078002897
:1056100000D0E2E528461BB0F0BD600700D40627A5
:105620001898C01DC108C90048680A680831C30F2E
:10563000DB071891190001D09CA108E0210501D5D4
:105640009BA104E0E10701D09AA100E09AA14300E8
:1056500011985B08109165280CD006DC452809D00C
:1056600046281DD0472841D141E0662818D0672838
:105670003CD13CE00021112F01DB112000E0781C1F
:105680000191009008A911A8FFF7E8FC1399059172
:105690000021119A15927F1C12980197009150E0F9
:1056A0000120C00703900120019008A9009711A8CC
:1056B000FFF7D4FC139A149905920022119B0092D3
:1056C00012981593059A0192002901D0104602E024
:1056D000791C40180190381A01D5019804E0404225
:1056E000401E0090781C0190C01B029043E0012FE7
:1056F00000DA01270021112F01DD112000E03846DA
:105700000191009008A911A8FFF7A8FC1399059131
:10571000119A0021129815920091019721070CD43B
:105720000599B94201DB019900E00191012904DDED
:10573000159A491E515C302906D0B84201DA011D84
:1057400005DA0121029115E00199491EEDE70028D3
:1057500005DC0099411800910199091A03E0019AAA
:10576000411C914200DD01910099401A401C0290B9
:105770000120C0070390200706D4029901988142B6
:1057800002DB0020C043029000206946C87707AFC3
:10579000012103980337C907884224D002201190C1
:1057A0002B201290039800280CDA404203902D2001
:1057B000129007E00A210398FAF7ECFC30317F1EC3
:1057C000039039701199481E11900029F2DC03985A
:1057D0000028EFD1791E12980870307820210840F7
:1057E0004530BF1E387006A8C01BC01D039010981E
:1057F0000078002800D00120019941180298C017B4
:105800000918039809180498401A401E0490E003F0
:1058100006D421461A9B199A049800F05FF845199E
:1058200010980078002803D01A9A199990476D1C97
:10583000E00324D521461A9B199A049800F04EF8EB
:1058400045191CE00098002807DB0099059888425C
:1058500003DD1598405C199901E0199930201A9AD6
:10586000904700986D1C401C00900298401E0290CA
:10587000002804D11A9A2E20199990476D1C01997D
:10588000481E01900029DDDC05E038781A9A7F1C5B
:10589000199990476D1C0399481E03900029F4DC68
:1058A00021461A9B199A0498ACE600002D000000CE
:1058B0002B0000002000000000000000F8B50446A6
:1058C00000251E461746880404D405E039462020EA
:1058D000B0476D1C641EF9D52846F8BDFFB50446D7
:1058E000002581B01E46C80301D5302700E02027DF
:1058F000880404D505E038460399B0476D1C641E42
:10590000F9D5284605B0F0BDEFAA1300230000002A
:105910000000000000000000000000000000000087
:105920000000000000000000000000000000010A6C
:105930003B0000009B5A00088D5A0008885A000856
:10594000905A0008955A000800000000000000006E
:105950000000000000000000000000000000000047
:105960000000000000000000010000000200000034
:105970000300000004000000060000000700000013
:105980000800000009000000000000000000000006
:105990000000000000000000010000000200000004
:1059A00003000000040000000804020408010101D3
:1059B00001010103070100000100020004000600CC
:1059C00008000A000C0010002000400080000001C8
:1059D0006D696368656E67000000000000000000EC
:1059E00000000000000000000000000000000000B7
:1059F0000D0A00656E726F6C6C2074696D656F7551
:105A000074210A0027732069643A2025640A007013
:105A10006C73206C6F6F6B2025730A00656E726F5C
:105A20006C6C6D656E7420737563636573732C2085
:105A300074686520757365722000636D64207769F2
:105A40007468206E6F20726573706F6E6421210020
:105A50006D6174636820737563636573732C207460
:105A60006865207573657227732069643A20256420
:105A700025642C2074686520757365722773206E09
:105A8000616D653A00256300646F776E0075700084
:105A90006C6566740072696768740066726F6E7414
:105AA00000656E726F6C6C6D656E7420636D642042
:105AB00073656E64696E672077697468206E6F2005
:105AC000726573706F6E642100000000F05A000868
:105AD00000000020100000003E500008005B00089D
